{
  "address": "0xe4a4B3Bc2787aA913e5b4bbce907e8b213250BDe",
  "abi": [
    {
      "inputs": [
        {
          "internalType": "contract IVault",
          "name": "vault",
          "type": "address"
        },
        {
          "internalType": "address",
          "name": "factory",
          "type": "address"
        }
      ],
      "stateMutability": "nonpayable",
      "type": "constructor"
    },
    {
      "anonymous": false,
      "inputs": [
        {
          "indexed": true,
          "internalType": "address",
          "name": "controller",
          "type": "address"
        },
        {
          "indexed": false,
          "internalType": "bytes32",
          "name": "poolId",
          "type": "bytes32"
        }
      ],
      "name": "ControllerCreated",
      "type": "event"
    },
    {
      "anonymous": false,
      "inputs": [],
      "name": "ControllerFactoryDisabled",
      "type": "event"
    },
    {
      "anonymous": false,
      "inputs": [
        {
          "indexed": true,
          "internalType": "address",
          "name": "previousOwner",
          "type": "address"
        },
        {
          "indexed": true,
          "internalType": "address",
          "name": "newOwner",
          "type": "address"
        }
      ],
      "name": "OwnershipTransferred",
      "type": "event"
    },
    {
      "inputs": [],
      "name": "balancerVault",
      "outputs": [
        {
          "internalType": "contract IVault",
          "name": "",
          "type": "address"
        }
      ],
      "stateMutability": "view",
      "type": "function"
    },
    {
      "inputs": [
        {
          "components": [
            {
              "internalType": "string",
              "name": "name",
              "type": "string"
            },
            {
              "internalType": "string",
              "name": "symbol",
              "type": "string"
            },
            {
              "internalType": "contract IERC20[]",
              "name": "tokens",
              "type": "address[]"
            },
            {
              "internalType": "uint256[]",
              "name": "normalizedWeights",
              "type": "uint256[]"
            },
            {
              "internalType": "uint256",
              "name": "swapFeePercentage",
              "type": "uint256"
            },
            {
              "internalType": "bool",
              "name": "swapEnabledOnStart",
              "type": "bool"
            },
            {
              "internalType": "uint256",
              "name": "managementAumFeePercentage",
              "type": "uint256"
            },
            {
              "internalType": "uint256",
              "name": "aumFeeId",
              "type": "uint256"
            }
          ],
          "internalType": "struct ControllerFactory.MinimalPoolParams",
          "name": "minimalParams",
          "type": "tuple"
        }
      ],
      "name": "create",
      "outputs": [],
      "stateMutability": "nonpayable",
      "type": "function"
    },
    {
      "inputs": [],
      "name": "disable",
      "outputs": [],
      "stateMutability": "nonpayable",
      "type": "function"
    },
    {
      "inputs": [],
      "name": "getLastCreatedPool",
      "outputs": [
        {
          "internalType": "address",
          "name": "",
          "type": "address"
        }
      ],
      "stateMutability": "view",
      "type": "function"
    },
    {
      "inputs": [
        {
          "internalType": "address",
          "name": "",
          "type": "address"
        }
      ],
      "name": "isControllerFromFactory",
      "outputs": [
        {
          "internalType": "bool",
          "name": "",
          "type": "bool"
        }
      ],
      "stateMutability": "view",
      "type": "function"
    },
    {
      "inputs": [],
      "name": "isDisabled",
      "outputs": [
        {
          "internalType": "bool",
          "name": "",
          "type": "bool"
        }
      ],
      "stateMutability": "view",
      "type": "function"
    },
    {
      "inputs": [],
      "name": "managedPoolFactory",
      "outputs": [
        {
          "internalType": "address",
          "name": "",
          "type": "address"
        }
      ],
      "stateMutability": "view",
      "type": "function"
    },
    {
      "inputs": [],
      "name": "owner",
      "outputs": [
        {
          "internalType": "address",
          "name": "",
          "type": "address"
        }
      ],
      "stateMutability": "view",
      "type": "function"
    },
    {
      "inputs": [],
      "name": "renounceOwnership",
      "outputs": [],
      "stateMutability": "nonpayable",
      "type": "function"
    },
    {
      "inputs": [
        {
          "internalType": "address",
          "name": "newOwner",
          "type": "address"
        }
      ],
      "name": "transferOwnership",
      "outputs": [],
      "stateMutability": "nonpayable",
      "type": "function"
    }
  ],
  "transactionHash": "0x656abdbb1e0aaa263cc1b090bedcd6f2810ce26c58caabc665cc540822f4f534",
  "args": [
    "0xBA12222222228d8Ba445958a75a0704d566BF2C8",
    "0xBF904F9F340745B4f0c4702c7B6Ab1e808eA6b93"
  ],
  "numDeployments": 4,
  "solcInputHash": "b7fbc4d26311322761793ccfd5a6f548",
  "bytecode": "0x60c06040523480156200001157600080fd5b5060405162006227380380620062278339818101604052810190620000379190620001b0565b6200004833620000be60201b60201c565b8173ffffffffffffffffffffffffffffffffffffffff1660a08173ffffffffffffffffffffffffffffffffffffffff1660601b815250508073ffffffffffffffffffffffffffffffffffffffff1660808173ffffffffffffffffffffffffffffffffffffffff1660601b8152505050506200026d565b60008060009054906101000a900473ffffffffffffffffffffffffffffffffffffffff169050816000806101000a81548173ffffffffffffffffffffffffffffffffffffffff021916908373ffffffffffffffffffffffffffffffffffffffff1602179055508173ffffffffffffffffffffffffffffffffffffffff168173ffffffffffffffffffffffffffffffffffffffff167f8be0079c531659141344cd1fd0a4f28419497f9722a3daafe3b4186f6b6457e060405160405180910390a35050565b600081519050620001938162000239565b92915050565b600081519050620001aa8162000253565b92915050565b60008060408385031215620001c457600080fd5b6000620001d48582860162000199565b9250506020620001e78582860162000182565b9150509250929050565b6000620001fe8262000219565b9050919050565b60006200021282620001f1565b9050919050565b600073ffffffffffffffffffffffffffffffffffffffff82169050919050565b6200024481620001f1565b81146200025057600080fd5b50565b6200025e8162000205565b81146200026a57600080fd5b50565b60805160601c60a05160601c615f77620002b0600039806104c752806109f852508061029552806102f6528061039e52806106bb5280610b635250615f776000f3fe60806040523480156200001157600080fd5b5060043610620000ac5760003560e01c80636c57f5a9116200006f5780636c57f5a91462000157578063715018a614620001795780638da5cb5b1462000185578063d4f25a4b14620001a7578063f2fde38b14620001c957620000ac565b806303818c1114620000b15780630b688a4914620000d1578063158274a514620001075780632f2770db14620001295780635ed312821462000135575b600080fd5b620000cf6004803603810190620000c99190620015a0565b620001e9565b005b620000ef6004803603810190620000e99190620014f0565b620009d6565b604051620000fe919062001cc2565b60405180910390f35b62000111620009f6565b60405162000120919062001cfc565b60405180910390f35b6200013362000a1a565b005b6200013f62000aa8565b6040516200014e919062001ca5565b60405180910390f35b6200016162000ad2565b60405162000170919062001cc2565b60405180910390f35b6200018362000ae5565b005b6200018f62000b38565b6040516200019e919062001ca5565b60405180910390f35b620001b162000b61565b604051620001c0919062001ca5565b60405180910390f35b620001e76004803603810190620001e19190620014f0565b62000b85565b005b600260009054906101000a900460ff16156200023c576040517f08c379a0000000000000000000000000000000000000000000000000000000008152600401620002339062001e81565b60405180910390fd5b620002706040518060600160405280602f815260200162005f13602f9139600260009054906101000a900460ff1662000c16565b620002ba60405180606001604052806037815260200162005e7e6037913982600001517f000000000000000000000000000000000000000000000000000000000000000062000cb6565b6200039c6040518060400160405280601481526020017f21494d616e61676564506f6f6c466163746f72790000000000000000000000008152507f000000000000000000000000000000000000000000000000000000000000000073ffffffffffffffffffffffffffffffffffffffff16636c57f5a96040518163ffffffff1660e01b815260040160206040518083038186803b1580156200035b57600080fd5b505afa15801562000370573d6000803e3d6000fd5b505050506040513d601f19601f8201168201806040525081019062000396919062001548565b62000c16565b7f000000000000000000000000000000000000000000000000000000000000000073ffffffffffffffffffffffffffffffffffffffff16636c57f5a96040518163ffffffff1660e01b815260040160206040518083038186803b1580156200040357600080fd5b505afa15801562000418573d6000803e3d6000fd5b505050506040513d601f19601f820116820180604052508101906200043e919062001548565b1562000481576040517f08c379a0000000000000000000000000000000000000000000000000000000008152600401620004789062001e5f565b60405180910390fd5b600060035460001b9050600360008154809291906001019190505550606060405180602001620004b1906200112a565b6020820181038252601f19601f820116604052507f00000000000000000000000000000000000000000000000000000000000000006000604051602001620004fb92919062001d19565b6040516020818303038152906040526040516020016200051d92919062001c7d565b604051602081830303815290604052905060006200054383838051906020012062000d59565b9050606084604001515167ffffffffffffffff811180156200056457600080fd5b50604051908082528060200260200182016040528015620005945781602001602082028036833780820191505090505b50905060005b8151811015620005fa5782828281518110620005b257fe5b602002602001019073ffffffffffffffffffffffffffffffffffffffff16908173ffffffffffffffffffffffffffffffffffffffff168152505080806001019150506200059a565b506200060562001138565b85600001518160000181905250856020015181602001819052508181604001819052506200063262001159565b866040015181600001819052508660600151816020018190525086608001518160400181815250508660a0015181606001901515908115158152505060008160800190151590811515815250508660c001518160a00181815250508660e001518160c0018181525050600060035460001b905060036000815480929190600101919050555060007f000000000000000000000000000000000000000000000000000000000000000073ffffffffffffffffffffffffffffffffffffffff16637304b8b9858589866040518563ffffffff1660e01b81526004016200071a949392919062001ec5565b602060405180830381600087803b1580156200073557600080fd5b505af11580156200074a573d6000803e3d6000fd5b505050506040513d601f19601f820116820180604052508101906200077091906200151c565b905080600460006101000a81548173ffffffffffffffffffffffffffffffffffffffff021916908373ffffffffffffffffffffffffffffffffffffffff160217905550620007fa60405180606001604052806030815260200162005ee360309139600460009054906101000a900473ffffffffffffffffffffffffffffffffffffffff1662000d70565b60006200080a60008a8a62000e10565b90508073ffffffffffffffffffffffffffffffffffffffff168773ffffffffffffffffffffffffffffffffffffffff16146200087d576040517f08c379a0000000000000000000000000000000000000000000000000000000008152600401620008749062001e3d565b60405180910390fd5b60018060008373ffffffffffffffffffffffffffffffffffffffff1673ffffffffffffffffffffffffffffffffffffffff16815260200190815260200160002060006101000a81548160ff021916908315150217905550620008f96040518060600160405280602e815260200162005eb5602e91398262000d70565b8073ffffffffffffffffffffffffffffffffffffffff167fe28c6fbc4eea571ad9b63caadffab5ed31c5fe070869482612284e482b1c94ba8373ffffffffffffffffffffffffffffffffffffffff166338fff2d06040518163ffffffff1660e01b815260040160206040518083038186803b1580156200097857600080fd5b505afa1580156200098d573d6000803e3d6000fd5b505050506040513d601f19601f82011682018060405250810190620009b3919062001574565b604051620009c2919062001cdf565b60405180910390a250505050505050505050565b60016020528060005260406000206000915054906101000a900460ff1681565b7f000000000000000000000000000000000000000000000000000000000000000081565b62000a5f3373ffffffffffffffffffffffffffffffffffffffff1662000a3f62000b38565b73ffffffffffffffffffffffffffffffffffffffff16146101aa62000f2a565b6001600260006101000a81548160ff0219169083151502179055507ff5d010c63fd4b7b423d9e3300f87bcd6131e94d44e9a585a74770b23213a8e0160405160405180910390a1565b6000600460009054906101000a900473ffffffffffffffffffffffffffffffffffffffff16905090565b600260009054906101000a900460ff1681565b62000b2a3373ffffffffffffffffffffffffffffffffffffffff1662000b0a62000b38565b73ffffffffffffffffffffffffffffffffffffffff16146101aa62000f2a565b62000b36600062000f40565b565b60008060009054906101000a900473ffffffffffffffffffffffffffffffffffffffff16905090565b7f000000000000000000000000000000000000000000000000000000000000000081565b62000bca3373ffffffffffffffffffffffffffffffffffffffff1662000baa62000b38565b73ffffffffffffffffffffffffffffffffffffffff16146101aa62000f2a565b62000c08600073ffffffffffffffffffffffffffffffffffffffff168273ffffffffffffffffffffffffffffffffffffffff1614156101ab62000f2a565b62000c138162000f40565b50565b62000cb2828260405160240162000c2f92919062001d7a565b6040516020818303038152906040527fc3b55635000000000000000000000000000000000000000000000000000000007bffffffffffffffffffffffffffffffffffffffffffffffffffffffff19166020820180517bffffffffffffffffffffffffffffffffffffffffffffffffffffffff838183161783525050505062001004565b5050565b62000d5483838360405160240162000cd19392919062001dae565b6040516020818303038152906040527f95ed0195000000000000000000000000000000000000000000000000000000007bffffffffffffffffffffffffffffffffffffffffffffffffffffffff19166020820180517bffffffffffffffffffffffffffffffffffffffffffffffffffffffff838183161783525050505062001004565b505050565b600062000d6883833062001022565b905092915050565b62000e0c828260405160240162000d8992919062001d46565b6040516020818303038152906040527f319af333000000000000000000000000000000000000000000000000000000007bffffffffffffffffffffffffffffffffffffffffffffffffffffffff19166020820180517bffffffffffffffffffffffffffffffffffffffffffffffffffffffff838183161783525050505062001004565b5050565b6000808447101562000e59576040517f08c379a000000000000000000000000000000000000000000000000000000000815260040162000e509062001df9565b60405180910390fd5b60008351141562000ea1576040517f08c379a000000000000000000000000000000000000000000000000000000000815260040162000e989062001ea3565b60405180910390fd5b8383516020850187f59050600073ffffffffffffffffffffffffffffffffffffffff168173ffffffffffffffffffffffffffffffffffffffff16141562000f1f576040517f08c379a000000000000000000000000000000000000000000000000000000000815260040162000f169062001e1b565b60405180910390fd5b809150509392505050565b8162000f3c5762000f3b8162001068565b5b5050565b60008060009054906101000a900473ffffffffffffffffffffffffffffffffffffffff169050816000806101000a81548173ffffffffffffffffffffffffffffffffffffffff021916908373ffffffffffffffffffffffffffffffffffffffff1602179055508173ffffffffffffffffffffffffffffffffffffffff168173ffffffffffffffffffffffffffffffffffffffff167f8be0079c531659141344cd1fd0a4f28419497f9722a3daafe3b4186f6b6457e060405160405180910390a35050565b6200101f81620010176200107d6200109e565b63ffffffff16565b50565b60008060ff60f81b83868660405160200162001042949392919062001c27565b6040516020818303038152906040528051906020012090508060001c9150509392505050565b6200107a816242414c60e81b620010aa565b50565b60006a636f6e736f6c652e6c6f679050600080835160208501845afa505050565b6200119a819050919050565b60008160e81c62ffffff1690506030600a840601600a840493506030600a850601600a850494506030600a8606018360081b60230160181b8160101b8360081b850101810160c81b7f08c379a000000000000000000000000000000000000000000000000000000000600052602060045260076024528060445260646000fd5b613bad80620022d183390190565b60405180606001604052806060815260200160608152602001606081525090565b6040518060e0016040528060608152602001606081526020016000815260200160001515815260200160001515815260200160008152602001600081525090565bfe5b600081359050620011ad816200224e565b92915050565b600081519050620011c4816200224e565b92915050565b600082601f830112620011dc57600080fd5b8135620011f3620011ed8262001f4e565b62001f20565b915081818352602084019350602081019050838560208402820111156200121957600080fd5b60005b838110156200124d578162001232888262001329565b8452602084019350602083019250506001810190506200121c565b5050505092915050565b600082601f8301126200126957600080fd5b8135620012806200127a8262001f77565b62001f20565b91508181835260208401935060208101905083856020840282011115620012a657600080fd5b60005b83811015620012da5781620012bf8882620014d9565b845260208401935060208301925050600181019050620012a9565b5050505092915050565b600081359050620012f58162002268565b92915050565b6000815190506200130c8162002268565b92915050565b600081519050620013238162002282565b92915050565b6000813590506200133a816200229c565b92915050565b600082601f8301126200135257600080fd5b813562001369620013638262001fa0565b62001f20565b915080825260208301602083018583830111156200138657600080fd5b62001393838284620021af565b50505092915050565b60006101008284031215620013b057600080fd5b620013bd61010062001f20565b9050600082013567ffffffffffffffff811115620013da57600080fd5b620013e88482850162001340565b600083015250602082013567ffffffffffffffff8111156200140957600080fd5b620014178482850162001340565b602083015250604082013567ffffffffffffffff8111156200143857600080fd5b6200144684828501620011ca565b604083015250606082013567ffffffffffffffff8111156200146757600080fd5b620014758482850162001257565b60608301525060806200148b84828501620014d9565b60808301525060a0620014a184828501620012e4565b60a08301525060c0620014b784828501620014d9565b60c08301525060e0620014cd84828501620014d9565b60e08301525092915050565b600081359050620014ea81620022b6565b92915050565b6000602082840312156200150357600080fd5b600062001513848285016200119c565b91505092915050565b6000602082840312156200152f57600080fd5b60006200153f84828501620011b3565b91505092915050565b6000602082840312156200155b57600080fd5b60006200156b84828501620012fb565b91505092915050565b6000602082840312156200158757600080fd5b6000620015978482850162001312565b91505092915050565b600060208284031215620015b357600080fd5b600082013567ffffffffffffffff811115620015ce57600080fd5b620015dc848285016200139c565b91505092915050565b6000620015f3838362001633565b60208301905092915050565b60006200160d83836200184e565b60208301905092915050565b600062001627838362001c16565b60208301905092915050565b6200163e81620020aa565b82525050565b6200164f81620020aa565b82525050565b6200166a6200166482620020aa565b620021f4565b82525050565b60006200167d8262001ffd565b6200168981856200205b565b9350620016968362001fcd565b8060005b83811015620016cd578151620016b18882620015e5565b9750620016be8362002034565b9250506001810190506200169a565b5085935050505092915050565b6000620016e78262002008565b620016f381856200205b565b9350620017008362001fdd565b8060005b83811015620017375781516200171b8882620015ff565b9750620017288362002041565b92505060018101905062001704565b5085935050505092915050565b6000620017518262002013565b6200175d81856200206c565b93506200176a8362001fed565b8060005b83811015620017a157815162001785888262001619565b975062001792836200204e565b9250506001810190506200176e565b5085935050505092915050565b620017b981620020be565b82525050565b620017ca81620020be565b82525050565b620017e5620017df82620020ca565b62002208565b82525050565b620017f681620020f6565b82525050565b620018116200180b82620020f6565b62002212565b82525050565b600062001824826200201e565b6200183081856200207d565b935062001842818560208601620021be565b80840191505092915050565b62001859816200214b565b82525050565b6200186a8162002173565b82525050565b6200187b816200219b565b82525050565b60006200188e8262002029565b6200189a818562002088565b9350620018ac818560208601620021be565b620018b78162002230565b840191505092915050565b6000620018cf8262002029565b620018db818562002099565b9350620018ed818560208601620021be565b620018f88162002230565b840191505092915050565b600062001912601c8362002099565b91507f435245415445325f494e53554646494349454e545f42414c414e4345000000006000830152602082019050919050565b60006200195460158362002099565b91507f435245415445325f4445504c4f595f4641494c454400000000000000000000006000830152602082019050919050565b600062001996602e8362002099565b91507f436f6e74726f6c6c6572466163746f72793a20436f6e74726f6c6c657220616460008301527f6472657373206d69736d617463680000000000000000000000000000000000006020830152604082019050919050565b6000620019fe603a8362002099565b91507f436f6e74726f6c6c6572466163746f72792063726561746528293a204d616e6160008301527f676564506f6f6c466163746f72792069732064697361626c65640000000000006020830152604082019050919050565b600062001a6660268362002099565b91507f436f6e74726f6c6c6572466163746f72793a20466163746f727920697320646960008301527f7361626c656400000000000000000000000000000000000000000000000000006020830152604082019050919050565b600062001ace60158362002099565b91507f435245415445325f42595445434f44455f5a45524f00000000000000000000006000830152602082019050919050565b6000606083016000830151848203600086015262001b20828262001881565b9150506020830151848203602086015262001b3c828262001881565b9150506040830151848203604086015262001b58828262001670565b9150508091505092915050565b600060e083016000830151848203600086015262001b848282620016da565b9150506020830151848203602086015262001ba0828262001744565b915050604083015162001bb7604086018262001c16565b50606083015162001bcc6060860182620017ae565b50608083015162001be16080860182620017ae565b5060a083015162001bf660a086018262001c16565b5060c083015162001c0b60c086018262001c16565b508091505092915050565b62001c218162002134565b82525050565b600062001c358287620017d0565b60018201915062001c47828662001655565b60148201915062001c598285620017fc565b60208201915062001c6b8284620017fc565b60208201915081905095945050505050565b600062001c8b828562001817565b915062001c99828462001817565b91508190509392505050565b600060208201905062001cbc600083018462001644565b92915050565b600060208201905062001cd96000830184620017bf565b92915050565b600060208201905062001cf66000830184620017eb565b92915050565b600060208201905062001d1360008301846200185f565b92915050565b600060408201905062001d3060008301856200185f565b62001d3f602083018462001870565b9392505050565b6000604082019050818103600083015262001d628185620018c2565b905062001d73602083018462001644565b9392505050565b6000604082019050818103600083015262001d968185620018c2565b905062001da76020830184620017bf565b9392505050565b6000606082019050818103600083015262001dca8186620018c2565b9050818103602083015262001de08185620018c2565b905062001df1604083018462001644565b949350505050565b6000602082019050818103600083015262001e148162001903565b9050919050565b6000602082019050818103600083015262001e368162001945565b9050919050565b6000602082019050818103600083015262001e588162001987565b9050919050565b6000602082019050818103600083015262001e7a81620019ef565b9050919050565b6000602082019050818103600083015262001e9c8162001a57565b9050919050565b6000602082019050818103600083015262001ebe8162001abf565b9050919050565b6000608082019050818103600083015262001ee1818762001b01565b9050818103602083015262001ef7818662001b65565b905062001f08604083018562001644565b62001f176060830184620017eb565b95945050505050565b6000604051905081810181811067ffffffffffffffff8211171562001f4457600080fd5b8060405250919050565b600067ffffffffffffffff82111562001f6657600080fd5b602082029050602081019050919050565b600067ffffffffffffffff82111562001f8f57600080fd5b602082029050602081019050919050565b600067ffffffffffffffff82111562001fb857600080fd5b601f19601f8301169050602081019050919050565b6000819050602082019050919050565b6000819050602082019050919050565b6000819050602082019050919050565b600081519050919050565b600081519050919050565b600081519050919050565b600081519050919050565b600081519050919050565b6000602082019050919050565b6000602082019050919050565b6000602082019050919050565b600082825260208201905092915050565b600082825260208201905092915050565b600081905092915050565b600082825260208201905092915050565b600082825260208201905092915050565b6000620020b78262002114565b9050919050565b60008115159050919050565b60007fff0000000000000000000000000000000000000000000000000000000000000082169050919050565b6000819050919050565b60006200210d82620020aa565b9050919050565b600073ffffffffffffffffffffffffffffffffffffffff82169050919050565b6000819050919050565b600060ff82169050919050565b600062002158826200215f565b9050919050565b60006200216c8262002114565b9050919050565b6000620021808262002187565b9050919050565b6000620021948262002114565b9050919050565b6000620021a8826200213e565b9050919050565b82818337600083830152505050565b60005b83811015620021de578082015181840152602081019050620021c1565b83811115620021ee576000848401525b50505050565b600062002201826200221c565b9050919050565b6000819050919050565b6000819050919050565b6000620022298262002241565b9050919050565b6000601f19601f8301169050919050565b60008160601b9050919050565b6200225981620020aa565b81146200226557600080fd5b50565b6200227381620020be565b81146200227f57600080fd5b50565b6200228d81620020f6565b81146200229957600080fd5b50565b620022a78162002100565b8114620022b357600080fd5b50565b620022c18162002134565b8114620022cd57600080fd5b5056fe60c06040523480156200001157600080fd5b5060405162003bad38038062003bad833981810160405281019062000037919062000315565b6000801b81141562000149573373ffffffffffffffffffffffffffffffffffffffff16635ed312826040518163ffffffff1660e01b815260040160206040518083038186803b1580156200008a57600080fd5b505afa1580156200009f573d6000803e3d6000fd5b505050506040513d601f19601f82011682018060405250810190620000c591906200027c565b73ffffffffffffffffffffffffffffffffffffffff166338fff2d06040518163ffffffff1660e01b815260040160206040518083038186803b1580156200010b57600080fd5b505afa15801562000120573d6000803e3d6000fd5b505050506040513d601f19601f82011682018060405250810190620001469190620002e9565b90505b8173ffffffffffffffffffffffffffffffffffffffff1663f6c00927826040518263ffffffff1660e01b815260040162000184919062000367565b604080518083038186803b1580156200019c57600080fd5b505afa158015620001b1573d6000803e3d6000fd5b505050506040513d601f19601f82011682018060405250810190620001d79190620002a8565b50508173ffffffffffffffffffffffffffffffffffffffff1660808173ffffffffffffffffffffffffffffffffffffffff1660601b815250508060a08181525050505062000435565b6000815190506200023181620003d6565b92915050565b6000815190506200024881620003f0565b92915050565b6000815190506200025f816200040a565b92915050565b600081519050620002768162000424565b92915050565b6000602082840312156200028f57600080fd5b60006200029f8482850162000220565b91505092915050565b60008060408385031215620002bc57600080fd5b6000620002cc8582860162000220565b9250506020620002df8582860162000265565b9150509250929050565b600060208284031215620002fc57600080fd5b60006200030c8482850162000237565b91505092915050565b600080604083850312156200032957600080fd5b600062000339858286016200024e565b92505060206200034c8582860162000237565b9150509250929050565b620003618162000398565b82525050565b60006020820190506200037e600083018462000356565b92915050565b60006200039182620003b6565b9050919050565b6000819050919050565b6000620003af8262000384565b9050919050565b600073ffffffffffffffffffffffffffffffffffffffff82169050919050565b620003e18162000384565b8114620003ed57600080fd5b50565b620003fb8162000398565b81146200040757600080fd5b50565b6200041581620003a2565b81146200042157600080fd5b50565b600381106200043257600080fd5b50565b60805160601c60a0516136d9620004d4600039806106bf528061073b52806107c252806109535280610aae5280610c2a528061110752806111e652806113615280611681528061175f52806118d9525080610683528061078652806109175280610a725280610bee5280610dee5280610e165280610ef95280610fe2528061128f528061132552806116455280611723528061189d52506136d96000f3fe6080604052600436106100e85760003560e01c80638d928af81161008a578063c399a9a411610059578063c399a9a4146102c8578063d95219f3146102f4578063de3d2b2d14610310578063e01af92c14610339576100e8565b80638d928af814610220578063aaabadc51461024b578063b6d2473714610276578063c1bf9e581461029f576100e8565b806341e45a20116100c657806341e45a201461015d57806347bc4d921461018857806367e0e076146101b357806389c06568146101f3576100e8565b80631072cbea146100ed5780631d6e909e1461011657806338fff2d014610132575b600080fd5b3480156100f957600080fd5b50610114600480360381019061010f9190612442565b610362565b005b610130600480360381019061012b919061239f565b610643565b005b34801561013e57600080fd5b50610147610737565b6040516101549190612ce4565b60405180910390f35b34801561016957600080fd5b5061017261075f565b60405161017f9190612cc9565b60405180910390f35b34801561019457600080fd5b5061019d6108d3565b6040516101aa9190612cc9565b60405180910390f35b3480156101bf57600080fd5b506101da60048036038101906101d591906125e4565b610a64565b6040516101ea9493929190612f38565b60405180910390f35b3480156101ff57600080fd5b50610208610be2565b60405161021793929190612c62565b60405180910390f35b34801561022c57600080fd5b50610235610dea565b6040516102429190612db1565b60405180910390f35b34801561025757600080fd5b50610260610e12565b60405161026d9190612d96565b60405180910390f35b34801561028257600080fd5b5061029d60048036038101906102989190612442565b610eb7565b005b3480156102ab57600080fd5b506102c660048036038101906102c1919061260d565b611077565b005b3480156102d457600080fd5b506102dd61131d565b6040516102eb929190612c10565b60405180910390f35b61030e6004803603810190610309919061247e565b611421565b005b34801561031c57600080fd5b5061033760048036038101906103329190612569565b61171f565b005b34801561034557600080fd5b50610360600480360381019061035b9190612569565b611899565b005b6103846040518060600160405280603181526020016134546031913982611a14565b610430604051806080016040528060468152602001613614604691398373ffffffffffffffffffffffffffffffffffffffff1663dd62ed3e33306040518363ffffffff1660e01b81526004016103db929190612b87565b60206040518083038186803b1580156103f357600080fd5b505afa158015610407573d6000803e3d6000fd5b505050506040513d601f19601f8201168201806040525081019061042b9190612649565b611a14565b808273ffffffffffffffffffffffffffffffffffffffff1663dd62ed3e33306040518363ffffffff1660e01b815260040161046c929190612b87565b60206040518083038186803b15801561048457600080fd5b505afa158015610498573d6000803e3d6000fd5b505050506040513d601f19601f820116820180604052508101906104bc9190612649565b10610600578173ffffffffffffffffffffffffffffffffffffffff166323b872dd3330846040518463ffffffff1660e01b81526004016104fe93929190612bb0565b602060405180830381600087803b15801561051857600080fd5b505af115801561052c573d6000803e3d6000fd5b505050506040513d601f19601f820116820180604052508101906105509190612592565b506105fb6040518060600160405280602e8152602001613568602e91398373ffffffffffffffffffffffffffffffffffffffff166370a08231306040518263ffffffff1660e01b81526004016105a69190612b6c565b60206040518083038186803b1580156105be57600080fd5b505afa1580156105d2573d6000803e3d6000fd5b505050506040513d601f19601f820116820180604052508101906105f69190612649565b611a14565b61063f565b61063e6040518060400160405280601781526020017f476574206164646974696f6e6120616c6c6f77616e6365000000000000000000815250611ab0565b5b5050565b6106816040518060400160405280601e81526020017f436f6e74726f6c6c6572202d206a6f696e506f6f6c2829207265717573740000815250611ab0565b7f000000000000000000000000000000000000000000000000000000000000000073ffffffffffffffffffffffffffffffffffffffff1663b95cac287f00000000000000000000000000000000000000000000000000000000000000008585856040518563ffffffff1660e01b81526004016107009493929190612cff565b600060405180830381600087803b15801561071a57600080fd5b505af115801561072e573d6000803e3d6000fd5b50505050505050565b60007f0000000000000000000000000000000000000000000000000000000000000000905090565b600061078260405180606001604052806039815260200161359660399139611ab0565b60007f000000000000000000000000000000000000000000000000000000000000000073ffffffffffffffffffffffffffffffffffffffff1663f6c009277f00000000000000000000000000000000000000000000000000000000000000006040518263ffffffff1660e01b81526004016107fd9190612ce4565b604080518083038186803b15801561081457600080fd5b505afa158015610828573d6000803e3d6000fd5b505050506040513d601f19601f8201168201806040525081019061084c9190612406565b5090508073ffffffffffffffffffffffffffffffffffffffff166341e45a206040518163ffffffff1660e01b815260040160206040518083038186803b15801561089557600080fd5b505afa1580156108a9573d6000803e3d6000fd5b505050506040513d601f19601f820116820180604052508101906108cd9190612592565b91505090565b60006109136040518060400160405280601b81526020017f4d616e6167656420506f6f6c2067657453776170456e61626c65640000000000815250611ab0565b60007f000000000000000000000000000000000000000000000000000000000000000073ffffffffffffffffffffffffffffffffffffffff1663f6c009277f00000000000000000000000000000000000000000000000000000000000000006040518263ffffffff1660e01b815260040161098e9190612ce4565b604080518083038186803b1580156109a557600080fd5b505afa1580156109b9573d6000803e3d6000fd5b505050506040513d601f19601f820116820180604052508101906109dd9190612406565b5090508073ffffffffffffffffffffffffffffffffffffffff166347bc4d926040518163ffffffff1660e01b815260040160206040518083038186803b158015610a2657600080fd5b505afa158015610a3a573d6000803e3d6000fd5b505050506040513d601f19601f82011682018060405250810190610a5e9190612592565b91505090565b6000806000806000806000807f000000000000000000000000000000000000000000000000000000000000000073ffffffffffffffffffffffffffffffffffffffff1663b05f8e487f00000000000000000000000000000000000000000000000000000000000000008b6040518363ffffffff1660e01b8152600401610aeb929190612d4b565b60806040518083038186803b158015610b0357600080fd5b505afa158015610b17573d6000803e3d6000fd5b505050506040513d601f19601f82011682018060405250810190610b3b9190612672565b9350935093509350610b656040518060600160405280602281526020016135cf6022913985611a14565b610b876040518060600160405280602581526020016134f26025913984611a14565b610ba960405180606001604052806027815260200161367d6027913983611a14565b610bcb60405180606001604052806023815260200161365a6023913982611b49565b838383839750975097509750505050509193509193565b606080600060608060007f000000000000000000000000000000000000000000000000000000000000000073ffffffffffffffffffffffffffffffffffffffff1663f94d46687f00000000000000000000000000000000000000000000000000000000000000006040518263ffffffff1660e01b8152600401610c659190612ce4565b60006040518083038186803b158015610c7d57600080fd5b505afa158015610c91573d6000803e3d6000fd5b505050506040513d6000823e3d601f19601f82011682018060405250810190610cba91906124ea565b8093508194508295505050506060835167ffffffffffffffff81118015610ce057600080fd5b50604051908082528060200260200182016040528015610d0f5781602001602082028036833780820191505090505b50905060005b8451811015610dd757848181518110610d2a57fe5b6020026020010151828281518110610d3e57fe5b602002602001019073ffffffffffffffffffffffffffffffffffffffff16908173ffffffffffffffffffffffffffffffffffffffff1681525050610dca6040518060400160405280601881526020017f676574506f6f6c546f6b656e733a20546f6b656e732025730000000000000000815250838381518110610dbd57fe5b6020026020010151611b49565b8080600101915050610d15565b5080838396509650965050505050909192565b60007f0000000000000000000000000000000000000000000000000000000000000000905090565b60007f000000000000000000000000000000000000000000000000000000000000000073ffffffffffffffffffffffffffffffffffffffff1663aaabadc56040518163ffffffff1660e01b815260040160206040518083038186803b158015610e7a57600080fd5b505afa158015610e8e573d6000803e3d6000fd5b505050506040513d601f19601f82011682018060405250810190610eb291906125bb565b905090565b610edb6040518060600160405280602381526020016135f160239139333084611be5565b8173ffffffffffffffffffffffffffffffffffffffff1663095ea7b37f0000000000000000000000000000000000000000000000000000000000000000836040518363ffffffff1660e01b8152600401610f36929190612c39565b602060405180830381600087803b158015610f5057600080fd5b505af1158015610f64573d6000803e3d6000fd5b505050506040513d601f19601f82011682018060405250810190610f889190612592565b506110736040518060400160405280601d81526020017f436f6e74726f6c6c657220416c6c6f77616e6365206f6620746f6b656e000000815250838473ffffffffffffffffffffffffffffffffffffffff1663dd62ed3e307f00000000000000000000000000000000000000000000000000000000000000006040518363ffffffff1660e01b815260040161101e929190612be7565b60206040518083038186803b15801561103657600080fd5b505afa15801561104a573d6000803e3d6000fd5b505050506040513d601f19601f8201168201806040525081019061106e9190612649565b611c87565b5050565b6060600267ffffffffffffffff8111801561109157600080fd5b506040519080825280602002602001820160405280156110cb57816020015b6110b8611ea1565b8152602001906001900390816110b05790505b5090506000816000815181106110dd57fe5b60200260200101516000019060028111156110f457fe5b9081600281111561110157fe5b815250507f00000000000000000000000000000000000000000000000000000000000000008160008151811061113357fe5b60200260200101516020018181525050818160008151811061115157fe5b60200260200101516060018181525050828160008151811061116f57fe5b60200260200101516040019073ffffffffffffffffffffffffffffffffffffffff16908173ffffffffffffffffffffffffffffffffffffffff16815250506002816001815181106111bc57fe5b60200260200101516000019060028111156111d357fe5b908160028111156111e057fe5b815250507f00000000000000000000000000000000000000000000000000000000000000008160018151811061121257fe5b6020026020010151602001818152505060008160018151811061123157fe5b60200260200101516060018181525050828160018151811061124f57fe5b60200260200101516040019073ffffffffffffffffffffffffffffffffffffffff16908173ffffffffffffffffffffffffffffffffffffffff16815250507f000000000000000000000000000000000000000000000000000000000000000073ffffffffffffffffffffffffffffffffffffffff1663e6c46092826040518263ffffffff1660e01b81526004016112e69190612ca7565b600060405180830381600087803b15801561130057600080fd5b505af1158015611314573d6000803e3d6000fd5b50505050505050565b6000806000807f000000000000000000000000000000000000000000000000000000000000000073ffffffffffffffffffffffffffffffffffffffff1663f6c009277f00000000000000000000000000000000000000000000000000000000000000006040518263ffffffff1660e01b815260040161139c9190612ce4565b604080518083038186803b1580156113b357600080fd5b505afa1580156113c7573d6000803e3d6000fd5b505050506040513d601f19601f820116820180604052508101906113eb9190612406565b80925081935050506114156040518060600160405280602381526020016135456023913983611b49565b81819350935050509091565b6060825167ffffffffffffffff8111801561143b57600080fd5b5060405190808252806020026020018201604052801561146a5781602001602082028036833780820191505090505b50905060005b83518110156114e05783818151811061148557fe5b602002602001015182828151811061149957fe5b602002602001019073ffffffffffffffffffffffffffffffffffffffff16908173ffffffffffffffffffffffffffffffffffffffff16815250508080600101915050611470565b506060825160010167ffffffffffffffff811180156114fe57600080fd5b5060405190808252806020026020018201604052801561152d5781602001602082028036833780820191505090505b5090506dfffffffffffffffffffffffca4408160008151811061154c57fe5b60200260200101818152505060005b83518110156115a05783818151811061157057fe5b602002602001015182600183018151811061158757fe5b602002602001018181525050808060010191505061155b565b506000606081856040516020016115b8929190612f08565b60405160208183030381529060405290506115ea60405180606001604052806039815260200161348560399139611ab0565b6115f381611d26565b6115fb611eed565b60405180608001604052808681526020018581526020018381526020016000151581525090506116436040518060600160405280602e8152602001613517602e913933611b49565b7f000000000000000000000000000000000000000000000000000000000000000073ffffffffffffffffffffffffffffffffffffffff1663b95cac287f00000000000000000000000000000000000000000000000000000000000000003030856040518563ffffffff1660e01b81526004016116c29493929190612cff565b600060405180830381600087803b1580156116dc57600080fd5b505af11580156116f0573d6000803e3d6000fd5b505050506117166040518060600160405280603481526020016134be6034913930611b49565b50505050505050565b60007f000000000000000000000000000000000000000000000000000000000000000073ffffffffffffffffffffffffffffffffffffffff1663f6c009277f00000000000000000000000000000000000000000000000000000000000000006040518263ffffffff1660e01b815260040161179a9190612ce4565b604080518083038186803b1580156117b157600080fd5b505afa1580156117c5573d6000803e3d6000fd5b505050506040513d601f19601f820116820180604052508101906117e99190612406565b50905061182a6040518060400160405280601f81526020017f4d616e6167656420506f6f6c207365744a6f696e45786974456e61626c656400815250611ab0565b8073ffffffffffffffffffffffffffffffffffffffff1663de3d2b2d836040518263ffffffff1660e01b81526004016118639190612cc9565b600060405180830381600087803b15801561187d57600080fd5b505af1158015611891573d6000803e3d6000fd5b505050505050565b60007f000000000000000000000000000000000000000000000000000000000000000073ffffffffffffffffffffffffffffffffffffffff1663f6c009277f00000000000000000000000000000000000000000000000000000000000000006040518263ffffffff1660e01b81526004016119149190612ce4565b604080518083038186803b15801561192b57600080fd5b505afa15801561193f573d6000803e3d6000fd5b505050506040513d601f19601f820116820180604052508101906119639190612406565b5090506119a56040518060400160405280601e81526020017f4d616e6167656420506f6f6c2073657453776170456e61626c6564203d20000081525083611dbf565b8073ffffffffffffffffffffffffffffffffffffffff1663e01af92c836040518263ffffffff1660e01b81526004016119de9190612cc9565b600060405180830381600087803b1580156119f857600080fd5b505af1158015611a0c573d6000803e3d6000fd5b505050505050565b611aac8282604051602401611a2a929190612ed8565b6040516020818303038152906040527fb60e72cc000000000000000000000000000000000000000000000000000000007bffffffffffffffffffffffffffffffffffffffffffffffffffffffff19166020820180517bffffffffffffffffffffffffffffffffffffffffffffffffffffffff8381831617835250505050611e5b565b5050565b611b4681604051602401611ac49190612dcc565b6040516020818303038152906040527f41304fac000000000000000000000000000000000000000000000000000000007bffffffffffffffffffffffffffffffffffffffffffffffffffffffff19166020820180517bffffffffffffffffffffffffffffffffffffffffffffffffffffffff8381831617835250505050611e5b565b50565b611be18282604051602401611b5f929190612dee565b6040516020818303038152906040527f319af333000000000000000000000000000000000000000000000000000000007bffffffffffffffffffffffffffffffffffffffffffffffffffffffff19166020820180517bffffffffffffffffffffffffffffffffffffffffffffffffffffffff8381831617835250505050611e5b565b5050565b611c8184848484604051602401611bff9493929190612e1e565b6040516020818303038152906040527f8ef3f399000000000000000000000000000000000000000000000000000000007bffffffffffffffffffffffffffffffffffffffffffffffffffffffff19166020820180517bffffffffffffffffffffffffffffffffffffffffffffffffffffffff8381831617835250505050611e5b565b50505050565b611d21838383604051602401611c9f93929190612e6a565b6040516020818303038152906040527f0d26b925000000000000000000000000000000000000000000000000000000007bffffffffffffffffffffffffffffffffffffffffffffffffffffffff19166020820180517bffffffffffffffffffffffffffffffffffffffffffffffffffffffff8381831617835250505050611e5b565b505050565b611dbc81604051602401611d3a9190612d74565b6040516020818303038152906040527f0be77f56000000000000000000000000000000000000000000000000000000007bffffffffffffffffffffffffffffffffffffffffffffffffffffffff19166020820180517bffffffffffffffffffffffffffffffffffffffffffffffffffffffff8381831617835250505050611e5b565b50565b611e578282604051602401611dd5929190612ea8565b6040516020818303038152906040527fc3b55635000000000000000000000000000000000000000000000000000000007bffffffffffffffffffffffffffffffffffffffffffffffffffffffff19166020820180517bffffffffffffffffffffffffffffffffffffffffffffffffffffffff8381831617835250505050611e5b565b5050565b611e7281611e6a611e75611e96565b63ffffffff16565b50565b60006a636f6e736f6c652e6c6f679050600080835160208501845afa505050565b611f17819050919050565b604051806080016040528060006002811115611eb957fe5b815260200160008019168152602001600073ffffffffffffffffffffffffffffffffffffffff168152602001600081525090565b60405180608001604052806060815260200160608152602001606081526020016000151581525090565bfe5b600081359050611f28816133b9565b92915050565b600081519050611f3d816133b9565b92915050565b600082601f830112611f5457600080fd5b8135611f67611f6282612faa565b612f7d565b91508181835260208401935060208101905083856020840282011115611f8c57600080fd5b60005b83811015611fbc5781611fa28882611f19565b845260208401935060208301925050600181019050611f8f565b5050505092915050565b600082601f830112611fd757600080fd5b8135611fea611fe582612fd2565b612f7d565b9150818183526020840193506020810190508385602084028201111561200f57600080fd5b60005b8381101561203f57816120258882612250565b845260208401935060208301925050600181019050612012565b5050505092915050565b600082601f83011261205a57600080fd5b815161206d61206882612ffa565b612f7d565b9150818183526020840193506020810190508385602084028201111561209257600080fd5b60005b838110156120c257816120a8888261228f565b845260208401935060208301925050600181019050612095565b5050505092915050565b600082601f8301126120dd57600080fd5b81356120f06120eb82613022565b612f7d565b9150818183526020840193506020810190508385602084028201111561211557600080fd5b60005b83811015612145578161212b8882612375565b845260208401935060208301925050600181019050612118565b5050505092915050565b600082601f83011261216057600080fd5b815161217361216e82613022565b612f7d565b9150818183526020840193506020810190508385602084028201111561219857600080fd5b60005b838110156121c857816121ae888261238a565b84526020840193506020830192505060018101905061219b565b5050505092915050565b6000813590506121e1816133d0565b92915050565b6000815190506121f6816133d0565b92915050565b600082601f83011261220d57600080fd5b813561222061221b8261304a565b612f7d565b9150808252602083016020830185838301111561223c57600080fd5b61224783828461334c565b50505092915050565b60008135905061225f816133e7565b92915050565b600081519050612274816133fe565b92915050565b60008135905061228981613415565b92915050565b60008151905061229e81613415565b92915050565b6000815190506122b38161342c565b92915050565b6000608082840312156122cb57600080fd5b6122d56080612f7d565b9050600082013567ffffffffffffffff8111156122f157600080fd5b6122fd84828501611fc6565b600083015250602082013567ffffffffffffffff81111561231d57600080fd5b612329848285016120cc565b602083015250604082013567ffffffffffffffff81111561234957600080fd5b612355848285016121fc565b6040830152506060612369848285016121d2565b60608301525092915050565b6000813590506123848161343c565b92915050565b6000815190506123998161343c565b92915050565b6000806000606084860312156123b457600080fd5b60006123c286828701611f19565b93505060206123d386828701611f19565b925050604084013567ffffffffffffffff8111156123f057600080fd5b6123fc868287016122b9565b9150509250925092565b6000806040838503121561241957600080fd5b600061242785828601611f2e565b9250506020612438858286016122a4565b9150509250929050565b6000806040838503121561245557600080fd5b600061246385828601611f19565b925050602061247485828601612375565b9150509250929050565b6000806040838503121561249157600080fd5b600083013567ffffffffffffffff8111156124ab57600080fd5b6124b785828601611f43565b925050602083013567ffffffffffffffff8111156124d457600080fd5b6124e0858286016120cc565b9150509250929050565b6000806000606084860312156124ff57600080fd5b600084015167ffffffffffffffff81111561251957600080fd5b61252586828701612049565b935050602084015167ffffffffffffffff81111561254257600080fd5b61254e8682870161214f565b925050604061255f8682870161238a565b9150509250925092565b60006020828403121561257b57600080fd5b6000612589848285016121d2565b91505092915050565b6000602082840312156125a457600080fd5b60006125b2848285016121e7565b91505092915050565b6000602082840312156125cd57600080fd5b60006125db84828501612265565b91505092915050565b6000602082840312156125f657600080fd5b60006126048482850161227a565b91505092915050565b6000806040838503121561262057600080fd5b600061262e8582860161227a565b925050602061263f85828601612375565b9150509250929050565b60006020828403121561265b57600080fd5b60006126698482850161238a565b91505092915050565b6000806000806080858703121561268857600080fd5b60006126968782880161238a565b94505060206126a78782880161238a565b93505060406126b88782880161238a565b92505060606126c987828801611f2e565b91505092959194509250565b60006126e18383612744565b60208301905092915050565b60006126f983836129e6565b60208301905092915050565b60006127118383612af9565b60808301905092915050565b60006127298383612b4e565b60208301905092915050565b61273e81613262565b82525050565b61274d816131b4565b82525050565b61275c816131b4565b82525050565b600061276d826130b6565b612777818561313d565b935061278283613076565b8060005b838110156127b357815161279a88826126d5565b97506127a5836130f8565b925050600181019050612786565b5085935050505092915050565b60006127cb826130c1565b6127d5818561312c565b93506127e083613086565b8060005b838110156128115781516127f888826126ed565b975061280383613105565b9250506001810190506127e4565b5085935050505092915050565b6000612829826130cc565b612833818561314e565b935061283e83613096565b8060005b8381101561286f5781516128568882612705565b975061286183613112565b925050600181019050612842565b5085935050505092915050565b6000612887826130d7565b612891818561315f565b935061289c836130a6565b8060005b838110156128cd5781516128b4888261271d565b97506128bf8361311f565b9250506001810190506128a0565b5085935050505092915050565b60006128e5826130d7565b6128ef8185613170565b93506128fa836130a6565b8060005b8381101561292b578151612912888261271d565b975061291d8361311f565b9250506001810190506128fe565b5085935050505092915050565b612941816131c6565b82525050565b612950816131c6565b82525050565b61295f816131d2565b82525050565b61296e816131d2565b82525050565b600061297f826130e2565b6129898185613181565b935061299981856020860161335b565b6129a28161338e565b840191505092915050565b60006129b8826130e2565b6129c28185613192565b93506129d281856020860161335b565b6129db8161338e565b840191505092915050565b6129ef81613274565b82525050565b6129fe81613298565b82525050565b612a0d816132bc565b82525050565b612a1c816132bc565b82525050565b612a2b816132e0565b82525050565b612a3a81613304565b82525050565b612a4981613316565b82525050565b6000612a5a826130ed565b612a6481856131a3565b9350612a7481856020860161335b565b612a7d8161338e565b840191505092915050565b60006080830160008301518482036000860152612aa582826127c0565b91505060208301518482036020860152612abf828261287c565b91505060408301518482036040860152612ad98282612974565b9150506060830151612aee6060860182612938565b508091505092915050565b608082016000820151612b0f6000850182612a31565b506020820151612b226020850182612956565b506040820151612b356040850182612a04565b506060820151612b486060850182612b4e565b50505050565b612b5781613258565b82525050565b612b6681613258565b82525050565b6000602082019050612b816000830184612753565b92915050565b6000604082019050612b9c6000830185612735565b612ba96020830184612753565b9392505050565b6000606082019050612bc56000830186612735565b612bd26020830185612753565b612bdf6040830184612b5d565b949350505050565b6000604082019050612bfc6000830185612753565b612c096020830184612753565b9392505050565b6000604082019050612c256000830185612753565b612c326020830184612a40565b9392505050565b6000604082019050612c4e6000830185612753565b612c5b6020830184612b5d565b9392505050565b60006060820190508181036000830152612c7c8186612762565b90508181036020830152612c9081856128da565b9050612c9f6040830184612b5d565b949350505050565b60006020820190508181036000830152612cc1818461281e565b905092915050565b6000602082019050612cde6000830184612947565b92915050565b6000602082019050612cf96000830184612965565b92915050565b6000608082019050612d146000830187612965565b612d216020830186612753565b612d2e6040830185612753565b8181036060830152612d408184612a88565b905095945050505050565b6000604082019050612d606000830185612965565b612d6d6020830184612a13565b9392505050565b60006020820190508181036000830152612d8e81846129ad565b905092915050565b6000602082019050612dab60008301846129f5565b92915050565b6000602082019050612dc66000830184612a22565b92915050565b60006020820190508181036000830152612de68184612a4f565b905092915050565b60006040820190508181036000830152612e088185612a4f565b9050612e176020830184612753565b9392505050565b60006080820190508181036000830152612e388187612a4f565b9050612e476020830186612753565b612e546040830185612753565b612e616060830184612b5d565b95945050505050565b60006060820190508181036000830152612e848186612a4f565b9050612e936020830185612753565b612ea06040830184612b5d565b949350505050565b60006040820190508181036000830152612ec28185612a4f565b9050612ed16020830184612947565b9392505050565b60006040820190508181036000830152612ef28185612a4f565b9050612f016020830184612b5d565b9392505050565b6000604082019050612f1d6000830185612b5d565b8181036020830152612f2f81846128da565b90509392505050565b6000608082019050612f4d6000830187612b5d565b612f5a6020830186612b5d565b612f676040830185612b5d565b612f746060830184612753565b95945050505050565b6000604051905081810181811067ffffffffffffffff82111715612fa057600080fd5b8060405250919050565b600067ffffffffffffffff821115612fc157600080fd5b602082029050602081019050919050565b600067ffffffffffffffff821115612fe957600080fd5b602082029050602081019050919050565b600067ffffffffffffffff82111561301157600080fd5b602082029050602081019050919050565b600067ffffffffffffffff82111561303957600080fd5b602082029050602081019050919050565b600067ffffffffffffffff82111561306157600080fd5b601f19601f8301169050602081019050919050565b6000819050602082019050919050565b6000819050602082019050919050565b6000819050602082019050919050565b6000819050602082019050919050565b600081519050919050565b600081519050919050565b600081519050919050565b600081519050919050565b600081519050919050565b600081519050919050565b6000602082019050919050565b6000602082019050919050565b6000602082019050919050565b6000602082019050919050565b600082825260208201905092915050565b600082825260208201905092915050565b600082825260208201905092915050565b600082825260208201905092915050565b600082825260208201905092915050565b600082825260208201905092915050565b600082825260208201905092915050565b600082825260208201905092915050565b60006131bf82613238565b9050919050565b60008115159050919050565b6000819050919050565b60006131e7826131b4565b9050919050565b60006131f9826131b4565b9050919050565b600061320b826131b4565b9050919050565b60008190506132208261339f565b919050565b6000819050613233826133ac565b919050565b600073ffffffffffffffffffffffffffffffffffffffff82169050919050565b6000819050919050565b600061326d82613328565b9050919050565b600061327f82613286565b9050919050565b600061329182613238565b9050919050565b60006132a3826132aa565b9050919050565b60006132b582613238565b9050919050565b60006132c7826132ce565b9050919050565b60006132d982613238565b9050919050565b60006132eb826132f2565b9050919050565b60006132fd82613238565b9050919050565b600061330f82613212565b9050919050565b600061332182613225565b9050919050565b60006133338261333a565b9050919050565b600061334582613238565b9050919050565b82818337600083830152505050565b60005b8381101561337957808201518184015260208101905061335e565b83811115613388576000848401525b50505050565b6000601f19601f8301169050919050565b600381106133a957fe5b50565b600381106133b657fe5b50565b6133c2816131b4565b81146133cd57600080fd5b50565b6133d9816131c6565b81146133e457600080fd5b50565b6133f0816131dc565b81146133fb57600080fd5b50565b613407816131ee565b811461341257600080fd5b50565b61341e81613200565b811461342957600080fd5b50565b6003811061343957600080fd5b50565b61344581613258565b811461345057600080fd5b5056fe436f6e74726f6c6c6572202d207472616e73666572546f6b656e2066756e6374696f6e2063616c6c202d20737461727420436f6e74726f6c6c6572202d20696e6974506f6f6c282920696e69745573657244617461203d3d3d3f20636865636b206e657874206c696e65436f6e74726f6c6c6572202d20696e6974506f6f6c2829207265717565737420646f6e6520666f7220636f6e74726f6c6c657220676574506f6f6c546f6b656e73496e666f3a204d616e616765642042616c616e6365202573436f6e74726f6c6c6572202d20696e6974506f6f6c28292072657175657374206d73672e73656e64657220697320676574506f6f6c5370656369616c697a6174696f6e3a20506f6f6c2041646472657373436f6e74726f6c6c6572202d207472616e73666572546f6b656e2066756e6374696f6e2063616c6c202d20656e64676574204d616e6167656420706f6f6c204a6f696e202f204578697420737461747573202d206765744a6f696e45786974456e61626c656420676574506f6f6c546f6b656e73496e666f3a20436173682042616c616e6365202573436f6e74726f6c6c6572202d20617070726f7665546f6b656e28292072657175657374436f6e74726f6c6c6572202d207472616e73666572546f6b656e2066756e6374696f6e2063616c6c202d207374617274202d2d3e43757272656e7420416c6c6f77616e636520676574506f6f6c546f6b656e73496e666f3a204173736574204d616e61676572202573676574506f6f6c546f6b656e73496e666f3a204c617374204368616e676520426c6f636b202573a2646970667358221220d3a2e12096b70491880d9ca6b9806a53c7321fea7fec833f9ccb5f1a9d5364c964736f6c63430007010033436f6e74726f6c6c6572466163746f72792063726561746528292031203a4e616d652c20204d616e61676564506f6f6c466163746f7279436f6e74726f6c6c6572466163746f72792063726561746528293a20436f6e74726f6c6c65722063726561746564436f6e74726f6c6c6572466163746f72792063726561746528293a204d616e6167656420506f6f6c2063726561746564436f6e74726f6c6c6572466163746f727920637265617465282920726571756972652021697344697361626c656420a2646970667358221220a7cbc5efbfbdf53904c689f007da4649f576045aded12190a7b9ba0664720bad64736f6c63430007010033",
  "devdoc": {
    "details": "Determines controller deployment address, deploys pool (w/ controller address as argument), then controller.",
    "kind": "dev",
    "methods": {
      "create((string,string,address[],uint256[],uint256,bool,uint256,uint256))": {
        "details": "Create a Managed Pool and a Controller."
      },
      "disable()": {
        "details": "Allow the owner to disable the factory, preventing future deployments.The onlyOwner access control paradigm is an example. Any access control can be implemented to allow for different needs."
      },
      "getLastCreatedPool()": {
        "details": "Return the address of the most recently created pool."
      },
      "owner()": {
        "details": "Returns the address of the current owner."
      },
      "renounceOwnership()": {
        "details": "Leaves the contract without owner. It will not be possible to call `onlyOwner` functions anymore. Can only be called by the current owner. NOTE: Renouncing ownership will leave the contract without an owner, thereby removing any functionality that is only available to the owner."
      },
      "transferOwnership(address)": {
        "details": "Transfers ownership of the contract to a new account (`newOwner`). Can only be called by the current owner."
      }
    },
    "title": "ControllerFactory",
    "version": 1
  },
  "userdoc": {
    "kind": "user",
    "methods": {
      "disable()": {
        "notice": "owner is initially the factory deployer, but this role can be transferred."
      }
    },
    "notice": "Factory for a Managed Pool and Pool Controller.",
    "version": 1
  },
  "storageLayout": {
    "storage": [
      {
        "astId": 1862,
        "contract": "contracts/ControllerFactory.sol:ControllerFactory",
        "label": "_owner",
        "offset": 0,
        "slot": "0",
        "type": "t_address"
      },
      {
        "astId": 2747,
        "contract": "contracts/ControllerFactory.sol:ControllerFactory",
        "label": "isControllerFromFactory",
        "offset": 0,
        "slot": "1",
        "type": "t_mapping(t_address,t_bool)"
      },
      {
        "astId": 2753,
        "contract": "contracts/ControllerFactory.sol:ControllerFactory",
        "label": "isDisabled",
        "offset": 0,
        "slot": "2",
        "type": "t_bool"
      },
      {
        "astId": 2755,
        "contract": "contracts/ControllerFactory.sol:ControllerFactory",
        "label": "_nextControllerSalt",
        "offset": 0,
        "slot": "3",
        "type": "t_uint256"
      },
      {
        "astId": 2757,
        "contract": "contracts/ControllerFactory.sol:ControllerFactory",
        "label": "_lastCreatedPool",
        "offset": 0,
        "slot": "4",
        "type": "t_address"
      }
    ],
    "types": {
      "t_address": {
        "encoding": "inplace",
        "label": "address",
        "numberOfBytes": "20"
      },
      "t_bool": {
        "encoding": "inplace",
        "label": "bool",
        "numberOfBytes": "1"
      },
      "t_mapping(t_address,t_bool)": {
        "encoding": "mapping",
        "key": "t_address",
        "label": "mapping(address => bool)",
        "numberOfBytes": "32",
        "value": "t_bool"
      },
      "t_uint256": {
        "encoding": "inplace",
        "label": "uint256",
        "numberOfBytes": "32"
      }
    }
  }
}