{
  "address": "0x021DBfF4A864Aa25c51F0ad2Cd73266Fde66199d",
  "abi": [
    {
      "inputs": [
        {
          "internalType": "address",
          "name": "_vault",
          "type": "address"
        },
        {
          "internalType": "uint256",
          "name": "amount",
          "type": "uint256"
        }
      ],
      "stateMutability": "nonpayable",
      "type": "constructor"
    },
    {
      "anonymous": false,
      "inputs": [
        {
          "indexed": true,
          "internalType": "address",
          "name": "owner",
          "type": "address"
        },
        {
          "indexed": true,
          "internalType": "address",
          "name": "spender",
          "type": "address"
        },
        {
          "indexed": false,
          "internalType": "uint256",
          "name": "value",
          "type": "uint256"
        }
      ],
      "name": "Approval",
      "type": "event"
    },
    {
      "anonymous": false,
      "inputs": [
        {
          "indexed": true,
          "internalType": "address",
          "name": "previousOwner",
          "type": "address"
        },
        {
          "indexed": true,
          "internalType": "address",
          "name": "newOwner",
          "type": "address"
        }
      ],
      "name": "OwnershipTransferred",
      "type": "event"
    },
    {
      "anonymous": false,
      "inputs": [
        {
          "indexed": true,
          "internalType": "address",
          "name": "owner",
          "type": "address"
        },
        {
          "indexed": true,
          "internalType": "address",
          "name": "spender",
          "type": "address"
        },
        {
          "indexed": false,
          "internalType": "uint256",
          "name": "value",
          "type": "uint256"
        }
      ],
      "name": "PlayerBTokenApproved",
      "type": "event"
    },
    {
      "anonymous": false,
      "inputs": [
        {
          "indexed": true,
          "internalType": "address",
          "name": "from",
          "type": "address"
        },
        {
          "indexed": true,
          "internalType": "address",
          "name": "to",
          "type": "address"
        },
        {
          "indexed": false,
          "internalType": "uint256",
          "name": "value",
          "type": "uint256"
        }
      ],
      "name": "Transfer",
      "type": "event"
    },
    {
      "inputs": [
        {
          "internalType": "address",
          "name": "owner",
          "type": "address"
        },
        {
          "internalType": "address",
          "name": "spender",
          "type": "address"
        }
      ],
      "name": "allowance",
      "outputs": [
        {
          "internalType": "uint256",
          "name": "",
          "type": "uint256"
        }
      ],
      "stateMutability": "view",
      "type": "function"
    },
    {
      "inputs": [
        {
          "internalType": "address",
          "name": "spender",
          "type": "address"
        },
        {
          "internalType": "uint256",
          "name": "amount",
          "type": "uint256"
        }
      ],
      "name": "approve",
      "outputs": [
        {
          "internalType": "bool",
          "name": "",
          "type": "bool"
        }
      ],
      "stateMutability": "nonpayable",
      "type": "function"
    },
    {
      "inputs": [
        {
          "internalType": "address",
          "name": "account",
          "type": "address"
        }
      ],
      "name": "balanceOf",
      "outputs": [
        {
          "internalType": "uint256",
          "name": "",
          "type": "uint256"
        }
      ],
      "stateMutability": "view",
      "type": "function"
    },
    {
      "inputs": [],
      "name": "decimals",
      "outputs": [
        {
          "internalType": "uint8",
          "name": "",
          "type": "uint8"
        }
      ],
      "stateMutability": "view",
      "type": "function"
    },
    {
      "inputs": [
        {
          "internalType": "address",
          "name": "spender",
          "type": "address"
        },
        {
          "internalType": "uint256",
          "name": "subtractedValue",
          "type": "uint256"
        }
      ],
      "name": "decreaseAllowance",
      "outputs": [
        {
          "internalType": "bool",
          "name": "",
          "type": "bool"
        }
      ],
      "stateMutability": "nonpayable",
      "type": "function"
    },
    {
      "inputs": [
        {
          "internalType": "address",
          "name": "spender",
          "type": "address"
        },
        {
          "internalType": "uint256",
          "name": "addedValue",
          "type": "uint256"
        }
      ],
      "name": "increaseAllowance",
      "outputs": [
        {
          "internalType": "bool",
          "name": "",
          "type": "bool"
        }
      ],
      "stateMutability": "nonpayable",
      "type": "function"
    },
    {
      "inputs": [],
      "name": "name",
      "outputs": [
        {
          "internalType": "string",
          "name": "",
          "type": "string"
        }
      ],
      "stateMutability": "view",
      "type": "function"
    },
    {
      "inputs": [],
      "name": "owner",
      "outputs": [
        {
          "internalType": "address",
          "name": "",
          "type": "address"
        }
      ],
      "stateMutability": "view",
      "type": "function"
    },
    {
      "inputs": [],
      "name": "renounceOwnership",
      "outputs": [],
      "stateMutability": "nonpayable",
      "type": "function"
    },
    {
      "inputs": [
        {
          "internalType": "address",
          "name": "_controller",
          "type": "address"
        }
      ],
      "name": "setController",
      "outputs": [],
      "stateMutability": "nonpayable",
      "type": "function"
    },
    {
      "inputs": [],
      "name": "symbol",
      "outputs": [
        {
          "internalType": "string",
          "name": "",
          "type": "string"
        }
      ],
      "stateMutability": "view",
      "type": "function"
    },
    {
      "inputs": [],
      "name": "totalSupply",
      "outputs": [
        {
          "internalType": "uint256",
          "name": "",
          "type": "uint256"
        }
      ],
      "stateMutability": "view",
      "type": "function"
    },
    {
      "inputs": [
        {
          "internalType": "address",
          "name": "_to",
          "type": "address"
        },
        {
          "internalType": "uint256",
          "name": "_value",
          "type": "uint256"
        }
      ],
      "name": "transfer",
      "outputs": [
        {
          "internalType": "bool",
          "name": "",
          "type": "bool"
        }
      ],
      "stateMutability": "nonpayable",
      "type": "function"
    },
    {
      "inputs": [
        {
          "internalType": "address",
          "name": "_from",
          "type": "address"
        },
        {
          "internalType": "address",
          "name": "_to",
          "type": "address"
        },
        {
          "internalType": "uint256",
          "name": "_value",
          "type": "uint256"
        }
      ],
      "name": "transferFrom",
      "outputs": [
        {
          "internalType": "bool",
          "name": "",
          "type": "bool"
        }
      ],
      "stateMutability": "nonpayable",
      "type": "function"
    },
    {
      "inputs": [
        {
          "internalType": "address",
          "name": "newOwner",
          "type": "address"
        }
      ],
      "name": "transferOwnership",
      "outputs": [],
      "stateMutability": "nonpayable",
      "type": "function"
    }
  ],
  "transactionHash": "0x6a42eda4d23b36d80ce887e0e543981ab791a4733bed97fa3834c05e9d55d71e",
  "args": [
    "0xBA12222222228d8Ba445958a75a0704d566BF2C8",
    300
  ],
  "numDeployments": 1,
  "solcInputHash": "46752a17e76e979666a0ec8c701b0570",
  "bytecode": "0x60806040523480156200001157600080fd5b5060405162002c9b38038062002c9b8339818101604052810190620000379190620006da565b6040518060400160405280600781526020017f506c6179657242000000000000000000000000000000000000000000000000008152506040518060400160405280600281526020017f50420000000000000000000000000000000000000000000000000000000000008152508160039081620000b4919062000991565b508060049081620000c6919062000991565b505050620000e9620000dd6200022c60201b60201c565b6200023460201b60201c565b6200012e60405180606001604052806025815260200162002c766025913960405180606001604052806032815260200162002c446032913983620002fa60201b60201c565b33600660006101000a81548173ffffffffffffffffffffffffffffffffffffffff021916908373ffffffffffffffffffffffffffffffffffffffff16021790555081600760006101000a81548173ffffffffffffffffffffffffffffffffffffffff021916908373ffffffffffffffffffffffffffffffffffffffff160217905550620001fd60405180606001604052806027815260200162002c1d60279139600660009054906101000a900473ffffffffffffffffffffffffffffffffffffffff16620003a360201b60201c565b6200022433670de0b6b3a76400008362000218919062000aa7565b6200044960201b60201c565b505062000d1b565b600033905090565b6000600560009054906101000a900473ffffffffffffffffffffffffffffffffffffffff16905081600560006101000a81548173ffffffffffffffffffffffffffffffffffffffff021916908373ffffffffffffffffffffffffffffffffffffffff1602179055508173ffffffffffffffffffffffffffffffffffffffff168173ffffffffffffffffffffffffffffffffffffffff167f8be0079c531659141344cd1fd0a4f28419497f9722a3daafe3b4186f6b6457e060405160405180910390a35050565b6200039e838383604051602401620003159392919062000b92565b6040516020818303038152906040527f5821efa1000000000000000000000000000000000000000000000000000000007bffffffffffffffffffffffffffffffffffffffffffffffffffffffff19166020820180517bffffffffffffffffffffffffffffffffffffffffffffffffffffffff8381831617835250505050620005c160201b60201c565b505050565b620004458282604051602401620003bc92919062000bee565b6040516020818303038152906040527f319af333000000000000000000000000000000000000000000000000000000007bffffffffffffffffffffffffffffffffffffffffffffffffffffffff19166020820180517bffffffffffffffffffffffffffffffffffffffffffffffffffffffff8381831617835250505050620005c160201b60201c565b5050565b600073ffffffffffffffffffffffffffffffffffffffff168273ffffffffffffffffffffffffffffffffffffffff1603620004bb576040517f08c379a0000000000000000000000000000000000000000000000000000000008152600401620004b29062000c72565b60405180910390fd5b620004cf60008383620005ea60201b60201c565b8060026000828254620004e3919062000c94565b92505081905550806000808473ffffffffffffffffffffffffffffffffffffffff1673ffffffffffffffffffffffffffffffffffffffff16815260200190815260200160002060008282546200053a919062000c94565b925050819055508173ffffffffffffffffffffffffffffffffffffffff16600073ffffffffffffffffffffffffffffffffffffffff167fddf252ad1be2c89b69c2b068fc378daa952ba7f163c4a11628f55a4df523b3ef83604051620005a1919062000ccf565b60405180910390a3620005bd60008383620005ef60201b60201c565b5050565b620005e781620005e2620005f460201b62000b03176200061560201b60201c565b60201c565b50565b505050565b505050565b60006a636f6e736f6c652e6c6f679050600080835160208501845afa505050565b6200062960201b620013f617819050919050565b6200063362000cec565b565b600080fd5b600073ffffffffffffffffffffffffffffffffffffffff82169050919050565b600062000667826200063a565b9050919050565b62000679816200065a565b81146200068557600080fd5b50565b60008151905062000699816200066e565b92915050565b6000819050919050565b620006b4816200069f565b8114620006c057600080fd5b50565b600081519050620006d481620006a9565b92915050565b60008060408385031215620006f457620006f362000635565b5b6000620007048582860162000688565b92505060206200071785828601620006c3565b9150509250929050565b600081519050919050565b7f4e487b7100000000000000000000000000000000000000000000000000000000600052604160045260246000fd5b7f4e487b7100000000000000000000000000000000000000000000000000000000600052602260045260246000fd5b60006002820490506001821680620007a357607f821691505b602082108103620007b957620007b86200075b565b5b50919050565b60008190508160005260206000209050919050565b60006020601f8301049050919050565b600082821b905092915050565b600060088302620008237fffffffffffffffffffffffffffffffffffffffffffffffffffffffffffffffff82620007e4565b6200082f8683620007e4565b95508019841693508086168417925050509392505050565b6000819050919050565b6000620008726200086c62000866846200069f565b62000847565b6200069f565b9050919050565b6000819050919050565b6200088e8362000851565b620008a66200089d8262000879565b848454620007f1565b825550505050565b600090565b620008bd620008ae565b620008ca81848462000883565b505050565b5b81811015620008f257620008e6600082620008b3565b600181019050620008d0565b5050565b601f82111562000941576200090b81620007bf565b6200091684620007d4565b8101602085101562000926578190505b6200093e6200093585620007d4565b830182620008cf565b50505b505050565b600082821c905092915050565b6000620009666000198460080262000946565b1980831691505092915050565b600062000981838362000953565b9150826002028217905092915050565b6200099c8262000721565b67ffffffffffffffff811115620009b857620009b76200072c565b5b620009c482546200078a565b620009d1828285620008f6565b600060209050601f83116001811462000a095760008415620009f4578287015190505b62000a00858262000973565b86555062000a70565b601f19841662000a1986620007bf565b60005b8281101562000a435784890151825560018201915060208501945060208101905062000a1c565b8683101562000a63578489015162000a5f601f89168262000953565b8355505b6001600288020188555050505b505050505050565b7f4e487b7100000000000000000000000000000000000000000000000000000000600052601160045260246000fd5b600062000ab4826200069f565b915062000ac1836200069f565b925082820262000ad1816200069f565b9150828204841483151762000aeb5762000aea62000a78565b5b5092915050565b600082825260208201905092915050565b60005b8381101562000b2357808201518184015260208101905062000b06565b60008484015250505050565b6000601f19601f8301169050919050565b600062000b4d8262000721565b62000b59818562000af2565b935062000b6b81856020860162000b03565b62000b768162000b2f565b840191505092915050565b62000b8c816200069f565b82525050565b6000606082019050818103600083015262000bae818662000b40565b9050818103602083015262000bc4818562000b40565b905062000bd5604083018462000b81565b949350505050565b62000be8816200065a565b82525050565b6000604082019050818103600083015262000c0a818562000b40565b905062000c1b602083018462000bdd565b9392505050565b7f45524332303a206d696e7420746f20746865207a65726f206164647265737300600082015250565b600062000c5a601f8362000af2565b915062000c678262000c22565b602082019050919050565b6000602082019050818103600083015262000c8d8162000c4b565b9050919050565b600062000ca1826200069f565b915062000cae836200069f565b925082820190508082111562000cc95762000cc862000a78565b5b92915050565b600060208201905062000ce6600083018462000b81565b92915050565b7f4e487b7100000000000000000000000000000000000000000000000000000000600052605160045260246000fd5b611ef28062000d2b6000396000f3fe608060405234801561001057600080fd5b50600436106100f55760003560e01c8063715018a611610097578063a457c2d711610066578063a457c2d714610276578063a9059cbb146102a6578063dd62ed3e146102d6578063f2fde38b14610306576100f5565b8063715018a6146102145780638da5cb5b1461021e57806392eefe9b1461023c57806395d89b4114610258576100f5565b806323b872dd116100d357806323b872dd14610166578063313ce5671461019657806339509351146101b457806370a08231146101e4576100f5565b806306fdde03146100fa578063095ea7b31461011857806318160ddd14610148575b600080fd5b610102610322565b60405161010f9190611490565b60405180910390f35b610132600480360381019061012d919061154b565b6103b4565b60405161013f91906115a6565b60405180910390f35b61015061046e565b60405161015d91906115d0565b60405180910390f35b610180600480360381019061017b91906115eb565b610478565b60405161018d91906115a6565b60405180910390f35b61019e6104d9565b6040516101ab919061165a565b60405180910390f35b6101ce60048036038101906101c9919061154b565b6104e2565b6040516101db91906115a6565b60405180910390f35b6101fe60048036038101906101f99190611675565b61058e565b60405161020b91906115d0565b60405180910390f35b61021c6105d6565b005b61022661065e565b60405161023391906116b1565b60405180910390f35b61025660048036038101906102519190611675565b610688565b005b610260610787565b60405161026d9190611490565b60405180910390f35b610290600480360381019061028b919061154b565b610819565b60405161029d91906115a6565b60405180910390f35b6102c060048036038101906102bb919061154b565b610904565b6040516102cd91906115a6565b60405180910390f35b6102f060048036038101906102eb91906116cc565b610985565b6040516102fd91906115d0565b60405180910390f35b610320600480360381019061031b9190611675565b610a0c565b005b6060600380546103319061173b565b80601f016020809104026020016040519081016040528092919081815260200182805461035d9061173b565b80156103aa5780601f1061037f576101008083540402835291602001916103aa565b820191906000526020600020905b81548152906001019060200180831161038d57829003601f168201915b5050505050905090565b60008273ffffffffffffffffffffffffffffffffffffffff163373ffffffffffffffffffffffffffffffffffffffff167fec322bab01574aa8eac46c95fc1618829fc01a5a599877d6a6ea80c1c5ccf91a8460405161041391906115d0565b60405180910390a361045c6040518060400160405280601781526020017f506c61796572204220746f6b656e20417070726f76616c000000000000000000815250338585610b24565b6104668383610bc6565b905092915050565b6000600254905090565b600061048384610be4565b6104c2576040517f08c379a00000000000000000000000000000000000000000000000000000000081526004016104b9906117de565b60405180910390fd5b6104cd848484610cff565b50600190509392505050565b60006012905090565b60006105846104ef610df7565b8484600160006104fd610df7565b73ffffffffffffffffffffffffffffffffffffffff1673ffffffffffffffffffffffffffffffffffffffff16815260200190815260200160002060008873ffffffffffffffffffffffffffffffffffffffff1673ffffffffffffffffffffffffffffffffffffffff1681526020019081526020016000205461057f919061182d565b610dff565b6001905092915050565b60008060008373ffffffffffffffffffffffffffffffffffffffff1673ffffffffffffffffffffffffffffffffffffffff168152602001908152602001600020549050919050565b6105de610df7565b73ffffffffffffffffffffffffffffffffffffffff166105fc61065e565b73ffffffffffffffffffffffffffffffffffffffff1614610652576040517f08c379a0000000000000000000000000000000000000000000000000000000008152600401610649906118ad565b60405180910390fd5b61065c6000610fc8565b565b6000600560009054906101000a900473ffffffffffffffffffffffffffffffffffffffff16905090565b610690610df7565b73ffffffffffffffffffffffffffffffffffffffff166106ae61065e565b73ffffffffffffffffffffffffffffffffffffffff1614610704576040517f08c379a00000000000000000000000000000000000000000000000000000000081526004016106fb906118ad565b60405180910390fd5b80600860006101000a81548173ffffffffffffffffffffffffffffffffffffffff021916908373ffffffffffffffffffffffffffffffffffffffff1602179055506107846040518060400160405280601181526020017f436f6e74726f6c6c65722073657420746f0000000000000000000000000000008152508261108e565b50565b6060600480546107969061173b565b80601f01602080910402602001604051908101604052809291908181526020018280546107c29061173b565b801561080f5780601f106107e45761010080835404028352916020019161080f565b820191906000526020600020905b8154815290600101906020018083116107f257829003601f168201915b5050505050905090565b60008060016000610828610df7565b73ffffffffffffffffffffffffffffffffffffffff1673ffffffffffffffffffffffffffffffffffffffff16815260200190815260200160002060008573ffffffffffffffffffffffffffffffffffffffff1673ffffffffffffffffffffffffffffffffffffffff168152602001908152602001600020549050828110156108e5576040517f08c379a00000000000000000000000000000000000000000000000000000000081526004016108dc9061193f565b60405180910390fd5b6108f96108f0610df7565b85858403610dff565b600191505092915050565b600061090f33610be4565b61094e576040517f08c379a0000000000000000000000000000000000000000000000000000000008152600401610945906119d1565b60405180910390fd5b610970604051806060016040528060228152602001611e9b602291393361108e565b61097a838361112a565b506001905092915050565b6000600160008473ffffffffffffffffffffffffffffffffffffffff1673ffffffffffffffffffffffffffffffffffffffff16815260200190815260200160002060008373ffffffffffffffffffffffffffffffffffffffff1673ffffffffffffffffffffffffffffffffffffffff16815260200190815260200160002054905092915050565b610a14610df7565b73ffffffffffffffffffffffffffffffffffffffff16610a3261065e565b73ffffffffffffffffffffffffffffffffffffffff1614610a88576040517f08c379a0000000000000000000000000000000000000000000000000000000008152600401610a7f906118ad565b60405180910390fd5b600073ffffffffffffffffffffffffffffffffffffffff168173ffffffffffffffffffffffffffffffffffffffff1603610af7576040517f08c379a0000000000000000000000000000000000000000000000000000000008152600401610aee90611a63565b60405180910390fd5b610b0081610fc8565b50565b60006a636f6e736f6c652e6c6f679050600080835160208501845afa505050565b610bc084848484604051602401610b3e9493929190611a83565b6040516020818303038152906040527f8ef3f399000000000000000000000000000000000000000000000000000000007bffffffffffffffffffffffffffffffffffffffffffffffffffffffff19166020820180517bffffffffffffffffffffffffffffffffffffffffffffffffffffffff8381831617835250505050611148565b50505050565b6000610bda610bd3610df7565b8484610dff565b6001905092915050565b6000600660009054906101000a900473ffffffffffffffffffffffffffffffffffffffff1673ffffffffffffffffffffffffffffffffffffffff168273ffffffffffffffffffffffffffffffffffffffff161480610c8f5750600760009054906101000a900473ffffffffffffffffffffffffffffffffffffffff1673ffffffffffffffffffffffffffffffffffffffff168273ffffffffffffffffffffffffffffffffffffffff16145b80610ce75750600860009054906101000a900473ffffffffffffffffffffffffffffffffffffffff1673ffffffffffffffffffffffffffffffffffffffff168273ffffffffffffffffffffffffffffffffffffffff16145b15610cf55760019050610cfa565b600090505b919050565b6000610d0c848484611162565b6000600160008673ffffffffffffffffffffffffffffffffffffffff1673ffffffffffffffffffffffffffffffffffffffff1681526020019081526020016000206000610d57610df7565b73ffffffffffffffffffffffffffffffffffffffff1673ffffffffffffffffffffffffffffffffffffffff16815260200190815260200160002054905082811015610dd7576040517f08c379a0000000000000000000000000000000000000000000000000000000008152600401610dce90611b41565b60405180910390fd5b610deb85610de3610df7565b858403610dff565b60019150509392505050565b600033905090565b600073ffffffffffffffffffffffffffffffffffffffff168373ffffffffffffffffffffffffffffffffffffffff1603610e6e576040517f08c379a0000000000000000000000000000000000000000000000000000000008152600401610e6590611bd3565b60405180910390fd5b600073ffffffffffffffffffffffffffffffffffffffff168273ffffffffffffffffffffffffffffffffffffffff1603610edd576040517f08c379a0000000000000000000000000000000000000000000000000000000008152600401610ed490611c65565b60405180910390fd5b80600160008573ffffffffffffffffffffffffffffffffffffffff1673ffffffffffffffffffffffffffffffffffffffff16815260200190815260200160002060008473ffffffffffffffffffffffffffffffffffffffff1673ffffffffffffffffffffffffffffffffffffffff168152602001908152602001600020819055508173ffffffffffffffffffffffffffffffffffffffff168373ffffffffffffffffffffffffffffffffffffffff167f8c5be1e5ebec7d5bd14f71427d1e84f3dd0314c0f7b2291e5b200ac8c7c3b92583604051610fbb91906115d0565b60405180910390a3505050565b6000600560009054906101000a900473ffffffffffffffffffffffffffffffffffffffff16905081600560006101000a81548173ffffffffffffffffffffffffffffffffffffffff021916908373ffffffffffffffffffffffffffffffffffffffff1602179055508173ffffffffffffffffffffffffffffffffffffffff168173ffffffffffffffffffffffffffffffffffffffff167f8be0079c531659141344cd1fd0a4f28419497f9722a3daafe3b4186f6b6457e060405160405180910390a35050565b61112682826040516024016110a4929190611c85565b6040516020818303038152906040527f319af333000000000000000000000000000000000000000000000000000000007bffffffffffffffffffffffffffffffffffffffffffffffffffffffff19166020820180517bffffffffffffffffffffffffffffffffffffffffffffffffffffffff8381831617835250505050611148565b5050565b600061113e611137610df7565b8484611162565b6001905092915050565b61115f81611157610b036113e1565b63ffffffff16565b50565b600073ffffffffffffffffffffffffffffffffffffffff168373ffffffffffffffffffffffffffffffffffffffff16036111d1576040517f08c379a00000000000000000000000000000000000000000000000000000000081526004016111c890611d27565b60405180910390fd5b600073ffffffffffffffffffffffffffffffffffffffff168273ffffffffffffffffffffffffffffffffffffffff1603611240576040517f08c379a000000000000000000000000000000000000000000000000000000000815260040161123790611db9565b60405180910390fd5b61124b8383836113ec565b60008060008573ffffffffffffffffffffffffffffffffffffffff1673ffffffffffffffffffffffffffffffffffffffff168152602001908152602001600020549050818110156112d1576040517f08c379a00000000000000000000000000000000000000000000000000000000081526004016112c890611e4b565b60405180910390fd5b8181036000808673ffffffffffffffffffffffffffffffffffffffff1673ffffffffffffffffffffffffffffffffffffffff16815260200190815260200160002081905550816000808573ffffffffffffffffffffffffffffffffffffffff1673ffffffffffffffffffffffffffffffffffffffff1681526020019081526020016000206000828254611364919061182d565b925050819055508273ffffffffffffffffffffffffffffffffffffffff168473ffffffffffffffffffffffffffffffffffffffff167fddf252ad1be2c89b69c2b068fc378daa952ba7f163c4a11628f55a4df523b3ef846040516113c891906115d0565b60405180910390a36113db8484846113f1565b50505050565b6113f6819050919050565b505050565b505050565b6113fe611e6b565b565b600081519050919050565b600082825260208201905092915050565b60005b8381101561143a57808201518184015260208101905061141f565b60008484015250505050565b6000601f19601f8301169050919050565b600061146282611400565b61146c818561140b565b935061147c81856020860161141c565b61148581611446565b840191505092915050565b600060208201905081810360008301526114aa8184611457565b905092915050565b600080fd5b600073ffffffffffffffffffffffffffffffffffffffff82169050919050565b60006114e2826114b7565b9050919050565b6114f2816114d7565b81146114fd57600080fd5b50565b60008135905061150f816114e9565b92915050565b6000819050919050565b61152881611515565b811461153357600080fd5b50565b6000813590506115458161151f565b92915050565b60008060408385031215611562576115616114b2565b5b600061157085828601611500565b925050602061158185828601611536565b9150509250929050565b60008115159050919050565b6115a08161158b565b82525050565b60006020820190506115bb6000830184611597565b92915050565b6115ca81611515565b82525050565b60006020820190506115e560008301846115c1565b92915050565b600080600060608486031215611604576116036114b2565b5b600061161286828701611500565b935050602061162386828701611500565b925050604061163486828701611536565b9150509250925092565b600060ff82169050919050565b6116548161163e565b82525050565b600060208201905061166f600083018461164b565b92915050565b60006020828403121561168b5761168a6114b2565b5b600061169984828501611500565b91505092915050565b6116ab816114d7565b82525050565b60006020820190506116c660008301846116a2565b92915050565b600080604083850312156116e3576116e26114b2565b5b60006116f185828601611500565b925050602061170285828601611500565b9150509250929050565b7f4e487b7100000000000000000000000000000000000000000000000000000000600052602260045260246000fd5b6000600282049050600182168061175357607f821691505b6020821081036117665761176561170c565b5b50919050565b7f5472616e73666572206f6e6c79207065726d69747465642066726f6d2064657060008201527f6c6f796572206f72207661756c74000000000000000000000000000000000000602082015250565b60006117c8602e8361140b565b91506117d38261176c565b604082019050919050565b600060208201905081810360008301526117f7816117bb565b9050919050565b7f4e487b7100000000000000000000000000000000000000000000000000000000600052601160045260246000fd5b600061183882611515565b915061184383611515565b925082820190508082111561185b5761185a6117fe565b5b92915050565b7f4f776e61626c653a2063616c6c6572206973206e6f7420746865206f776e6572600082015250565b600061189760208361140b565b91506118a282611861565b602082019050919050565b600060208201905081810360008301526118c68161188a565b9050919050565b7f45524332303a2064656372656173656420616c6c6f77616e63652062656c6f7760008201527f207a65726f000000000000000000000000000000000000000000000000000000602082015250565b600061192960258361140b565b9150611934826118cd565b604082019050919050565b600060208201905081810360008301526119588161191c565b9050919050565b7f5472616e73666572207065726d6974746564206f6e6c792066726f6d20746f6b60008201527f656e206465706c6f7965722c20636f6e74726f6c6c6572206f72207661756c74602082015250565b60006119bb60408361140b565b91506119c68261195f565b604082019050919050565b600060208201905081810360008301526119ea816119ae565b9050919050565b7f4f776e61626c653a206e6577206f776e657220697320746865207a65726f206160008201527f6464726573730000000000000000000000000000000000000000000000000000602082015250565b6000611a4d60268361140b565b9150611a58826119f1565b604082019050919050565b60006020820190508181036000830152611a7c81611a40565b9050919050565b60006080820190508181036000830152611a9d8187611457565b9050611aac60208301866116a2565b611ab960408301856116a2565b611ac660608301846115c1565b95945050505050565b7f45524332303a207472616e7366657220616d6f756e742065786365656473206160008201527f6c6c6f77616e6365000000000000000000000000000000000000000000000000602082015250565b6000611b2b60288361140b565b9150611b3682611acf565b604082019050919050565b60006020820190508181036000830152611b5a81611b1e565b9050919050565b7f45524332303a20617070726f76652066726f6d20746865207a65726f2061646460008201527f7265737300000000000000000000000000000000000000000000000000000000602082015250565b6000611bbd60248361140b565b9150611bc882611b61565b604082019050919050565b60006020820190508181036000830152611bec81611bb0565b9050919050565b7f45524332303a20617070726f766520746f20746865207a65726f20616464726560008201527f7373000000000000000000000000000000000000000000000000000000000000602082015250565b6000611c4f60228361140b565b9150611c5a82611bf3565b604082019050919050565b60006020820190508181036000830152611c7e81611c42565b9050919050565b60006040820190508181036000830152611c9f8185611457565b9050611cae60208301846116a2565b9392505050565b7f45524332303a207472616e736665722066726f6d20746865207a65726f20616460008201527f6472657373000000000000000000000000000000000000000000000000000000602082015250565b6000611d1160258361140b565b9150611d1c82611cb5565b604082019050919050565b60006020820190508181036000830152611d4081611d04565b9050919050565b7f45524332303a207472616e7366657220746f20746865207a65726f206164647260008201527f6573730000000000000000000000000000000000000000000000000000000000602082015250565b6000611da360238361140b565b9150611dae82611d47565b604082019050919050565b60006020820190508181036000830152611dd281611d96565b9050919050565b7f45524332303a207472616e7366657220616d6f756e742065786365656473206260008201527f616c616e63650000000000000000000000000000000000000000000000000000602082015250565b6000611e3560268361140b565b9150611e4082611dd9565b604082019050919050565b60006020820190508181036000830152611e6481611e28565b9050919050565b7f4e487b7100000000000000000000000000000000000000000000000000000000600052605160045260246000fdfe207472616e736665722063616c6c2066726f6d206d73672e73656e646572203d3d3ea2646970667358221220b069a2dbe03898d98996dc1c0b1d1c3b6d808a84497b7f0fab8092f5d75c1d9b64736f6c63430008140033436f6e74727563746f722829202d20546f6b656e2042206465706c6f7965722061646472657373636f6e7374727563746f72203a204d61726b6574546f6b656e2042207769746820696e697469616c20737570706c79206f66f09f92b8f09f92b8f09f92b84d494e542d506c617965722042f09f92b8f09f92b8f09f92b8",
  "devdoc": {
    "events": {
      "Approval(address,address,uint256)": {
        "details": "Emitted when the allowance of a `spender` for an `owner` is set by a call to {approve}. `value` is the new allowance."
      },
      "Transfer(address,address,uint256)": {
        "details": "Emitted when `value` tokens are moved from one account (`from`) to another (`to`). Note that `value` may be zero."
      }
    },
    "kind": "dev",
    "methods": {
      "allowance(address,address)": {
        "details": "See {IERC20-allowance}."
      },
      "approve(address,uint256)": {
        "details": "See {IERC20-approve}. Requirements: - `spender` cannot be the zero address."
      },
      "balanceOf(address)": {
        "details": "See {IERC20-balanceOf}."
      },
      "decimals()": {
        "details": "Returns the number of decimals used to get its user representation. For example, if `decimals` equals `2`, a balance of `505` tokens should be displayed to a user as `5.05` (`505 / 10 ** 2`). Tokens usually opt for a value of 18, imitating the relationship between Ether and Wei. This is the value {ERC20} uses, unless this function is overridden; NOTE: This information is only used for _display_ purposes: it in no way affects any of the arithmetic of the contract, including {IERC20-balanceOf} and {IERC20-transfer}."
      },
      "decreaseAllowance(address,uint256)": {
        "details": "Atomically decreases the allowance granted to `spender` by the caller. This is an alternative to {approve} that can be used as a mitigation for problems described in {IERC20-approve}. Emits an {Approval} event indicating the updated allowance. Requirements: - `spender` cannot be the zero address. - `spender` must have allowance for the caller of at least `subtractedValue`."
      },
      "increaseAllowance(address,uint256)": {
        "details": "Atomically increases the allowance granted to `spender` by the caller. This is an alternative to {approve} that can be used as a mitigation for problems described in {IERC20-approve}. Emits an {Approval} event indicating the updated allowance. Requirements: - `spender` cannot be the zero address."
      },
      "name()": {
        "details": "Returns the name of the token."
      },
      "owner()": {
        "details": "Returns the address of the current owner."
      },
      "renounceOwnership()": {
        "details": "Leaves the contract without owner. It will not be possible to call `onlyOwner` functions anymore. Can only be called by the current owner. NOTE: Renouncing ownership will leave the contract without an owner, thereby removing any functionality that is only available to the owner."
      },
      "symbol()": {
        "details": "Returns the symbol of the token, usually a shorter version of the name."
      },
      "totalSupply()": {
        "details": "See {IERC20-totalSupply}."
      },
      "transferOwnership(address)": {
        "details": "Transfers ownership of the contract to a new account (`newOwner`). Can only be called by the current owner."
      }
    },
    "version": 1
  },
  "userdoc": {
    "kind": "user",
    "methods": {},
    "version": 1
  },
  "storageLayout": {
    "storage": [
      {
        "astId": 119,
        "contract": "contracts/PlayerBToken.sol:PlayerBToken",
        "label": "_balances",
        "offset": 0,
        "slot": "0",
        "type": "t_mapping(t_address,t_uint256)"
      },
      {
        "astId": 125,
        "contract": "contracts/PlayerBToken.sol:PlayerBToken",
        "label": "_allowances",
        "offset": 0,
        "slot": "1",
        "type": "t_mapping(t_address,t_mapping(t_address,t_uint256))"
      },
      {
        "astId": 127,
        "contract": "contracts/PlayerBToken.sol:PlayerBToken",
        "label": "_totalSupply",
        "offset": 0,
        "slot": "2",
        "type": "t_uint256"
      },
      {
        "astId": 129,
        "contract": "contracts/PlayerBToken.sol:PlayerBToken",
        "label": "_name",
        "offset": 0,
        "slot": "3",
        "type": "t_string_storage"
      },
      {
        "astId": 131,
        "contract": "contracts/PlayerBToken.sol:PlayerBToken",
        "label": "_symbol",
        "offset": 0,
        "slot": "4",
        "type": "t_string_storage"
      },
      {
        "astId": 7,
        "contract": "contracts/PlayerBToken.sol:PlayerBToken",
        "label": "_owner",
        "offset": 0,
        "slot": "5",
        "type": "t_address"
      },
      {
        "astId": 785,
        "contract": "contracts/PlayerBToken.sol:PlayerBToken",
        "label": "deployer",
        "offset": 0,
        "slot": "6",
        "type": "t_address"
      },
      {
        "astId": 787,
        "contract": "contracts/PlayerBToken.sol:PlayerBToken",
        "label": "vault",
        "offset": 0,
        "slot": "7",
        "type": "t_address"
      },
      {
        "astId": 789,
        "contract": "contracts/PlayerBToken.sol:PlayerBToken",
        "label": "controller",
        "offset": 0,
        "slot": "8",
        "type": "t_address"
      }
    ],
    "types": {
      "t_address": {
        "encoding": "inplace",
        "label": "address",
        "numberOfBytes": "20"
      },
      "t_mapping(t_address,t_mapping(t_address,t_uint256))": {
        "encoding": "mapping",
        "key": "t_address",
        "label": "mapping(address => mapping(address => uint256))",
        "numberOfBytes": "32",
        "value": "t_mapping(t_address,t_uint256)"
      },
      "t_mapping(t_address,t_uint256)": {
        "encoding": "mapping",
        "key": "t_address",
        "label": "mapping(address => uint256)",
        "numberOfBytes": "32",
        "value": "t_uint256"
      },
      "t_string_storage": {
        "encoding": "bytes",
        "label": "string",
        "numberOfBytes": "32"
      },
      "t_uint256": {
        "encoding": "inplace",
        "label": "uint256",
        "numberOfBytes": "32"
      }
    }
  }
}